:020000040800F2
:1000000000040020C1010008014D0008014D000856
:10001000D1410008014D0008014D0008014D0008C4
:10002000014D0008014D0008014D0008A1830008A2
:10003000014D0008014D0008014D00086121010833
:10004000014D0008D1D60008B1D8000811D9000828
:10005000014D0008014D0008B1D3000801D400088B
:1000600051D40008A1D40008F1D4000821C400082C
:1000700091C4000801C5000871C50008E1C5000869
:1000800051C60008C1C60008D1D0000881DF0008B1
:10009000C1DF000801E0000841E0000841D5000888
:1000A000014D0008014D000871180108014D0008BC
:1000B000311A0108711A0108B11A0108C1F60008C5
:1000C00001F70008014D0008014D0008014D00082E
:1000D000014D0008014D0008014D0008E12601080E
:1000E00001D6000831D7000891D70008014D00085B
:1000F000014D0008014D0008014D000831C70008FE
:10010000014D000811E80008F11A0108014D00082E
:10011000014D0008014D000831180108014D00088B
:10012000A1C7000811C8000881C80008F1C800086C
:1001300061C90008014D0008F1D70008014D000811
:10014000014D0008014D0008014D0008D1080108CB
:10015000D1C9000841CA0008B1CA0008014D000811
:10016000014D0008014D0008014D0008014D000837
:1001700051D80008014D0008712E0008014D0008FB
:10018000014D0008014D0008014D0008014D000817
:10019000014D0008014D0008014D0008014D000807
:1001A000014D0008014D0008014D0008014D0008F7
:1001B000014D0008014D0008014D0008014D0008E7
:1001C00072B62E4880F3098840F20000CCF200009D
:1001D0004EF63471CEF20001086040F20000C0F229
:1001E000F0004EF68851CEF2000108604FF000009A
:1001F000E1EE100A4EF63C71CEF2000108600620D6
:1002000080F31488BFF36F8F12F0E2FA4FF055308D
:100210001B491C4A91423CBF41F8040BFAE71A49BA
:10022000164A91423CBF41F8040BFAE71749184AB5
:10023000184B9A423EBF51F8040B42F8040BF8E702
:1002400000201549154A91423CBF41F8040BFAE7DA
:1002500004F036FD124C134DAC4203DA54F8041B83
:100260008847F9E701F07CFF0F4C104DAC4203DAF0
:1002700054F8041B8847F9E704F03ABD0008002051
:10028000000000200004002000040020E8B3010862
:10029000000800205C1500206015002008D1002017
:1002A000C0010008C0010008C0010008C00100082A
:1002B0002DE9F04F2DED108AC1F80CD0D0F80CD0FC
:1002C000BDEC108ABDE8F08F05F012F906F028FDAC
:1002D000002383F311882846A047002006F068FA1F
:1002E00006F006FD05F0DCF805F04AFF05F000F920
:1002F00006F016FD00DFFEE7000000000000000031
:100300002DE9F843544B80461A68544882422DED3B
:10031000028B1BD052490B68DA0405D40A6842F4F8
:1003200080530B60012000E000204E4A4E491160CE
:1003300013684A4A934208D147490B6030B1484894
:10034000036823F48052026000E0FEE798ED018A22
:10035000B5EE408A0021F1EE10FAC8F81C10C8F87A
:100360001810C8F81410C8F81010C8F82810C8F8E9
:100370002410C8F8201029D0DFED3C7A28EE270A97
:1003800010EE100A01F038F8044618EE100A0D4677
:1003900001F032F80646B8F800000F4601F01AF8EE
:1003A0002BA3D3E9002301F0ADF902460B463046FA
:1003B000394600F0C3FE02460B462046294601F0AE
:1003C000A1F901F03DFBA8F82C0001E0A8F82C10E1
:1003D00098ED028AB5EE408AF1EE10FA26D0B8F810
:1003E00000904FEA092000F0F5FF044618EE100ACD
:1003F0000D4601F001F816A3D3E9002301F058F8E7
:10040000064648460F4600F0E5FF02460B463046DA
:10041000394600F093FE02460B462046294601F07D
:1004200071F901F00DFBA8F82E0002E00020A8F8F9
:100430002E00B8F800204FF47A73B2FBF3F1A8F85D
:100440003010BDEC028BBDE8F88300BFAFF3008035
:100450001F85EB51B81E194060150020CDB5E8B5D9
:100460003038024000300240C2A507F4000080434B
:100470002DE9F04F9BB083461992A94A1891A948DB
:100480001168814200D0FEE79E6AB3F80CC09F69F4
:100490009A8DD98D039603261C6A5D6A059706928C
:1004A00006FB0CF74FEA8C0206264FEA4C000B9134
:1004B0000E97052106FB0CF70F9207220294049574
:1004C0000D90119701FB0CF04FEACC0602FB0CF1EA
:1004D00000271D695C69D3F81CA010901291179633
:1004E0000197188EDDF80490814580F20A818E48CC
:1004F0009BF800601BF80C7010F80690C25DA144D8
:100500008419511994F8008194F8002201EB4808ED
:10051000CDF81C80DDF834801BF80860855DC719B4
:10052000A9180E9A97F800411BF8022097F800725C
:1005300001EB4405815C0895CC1981190F9E91F857
:10054000008191F8007204EB48081BF80640CDF8D2
:1005500024808218055D92F8006192F80022E91962
:1005600001EB460505EB0807DDF8408015971BF801
:1005700008700A950419C15D94F8005194F800427E
:10058000DDF81C808E1806EB4501119D089A1BF8BA
:1005900005508E18C719425D1696161997F8002156
:1005A00006EB42029044CDF85080129C97F80072FE
:1005B0001BF804604519845DE41995F8007195F8FD
:1005C0000052801904EB47044FF01C0804EB0907A4
:1005D00090F80061139708FB09AADDF81C800C94C1
:1005E0000AEB0209152705EB460490F8005207FBB9
:1005F0000890099FDDF820900A2606FB070A0F27BE
:1006000007FB09A04FF00308DDF8289008FB010064
:100610004FF0060A0AFB0900009015984FF03009C8
:1006200009FB00FADDF858902E2000FB09A0824655
:100630000598824413984FF0240909FB00AA1498E6
:100640004FF02A0909FB00AA0898DDF8249008FB5E
:1006500000F8062000FB0988DDF81C9008EB090073
:1006600007FB01010A9F0C98DDF8009006FB0718B4
:100670001C2606FB008115270B9807FB021205922A
:10068000A9F5003868B1029E049FCDF8108006EBF2
:100690000801CE1B46434FF4807296FBF2F00290A5
:1006A0008046069961B1039E08FB01F8C1F5807789
:1006B00006FB07894FF4807299FBF2F003908046A5
:1006C000199901FB08F7002F02DD0837381103E004
:1006D000083F102697FBF6F047F6BC72019E1349BF
:1006E000189FDDF85C809042A8BF1046DA897243FB
:1006F0008842A8BF0146013627F81210C34401966C
:10070000EFE61D615C61029D059C1D629C61039D7D
:10071000049CC3F81CA05C629D621BB0BDE8F08F16
:1007200060150020CDB5E8B5000800204480FFFF2B
:100730002DE9F04FA1B0C74C1F92C74A1E91116816
:10074000A14200D0FEE79F6A9A69998DDC8D0497DB
:100750009F89069207910F940322052106241D6AA2
:100760005E6A03957A4379437C43129214911594FF
:10077000072209210A24794305964FEA47084FEAE0
:1007800087097A434FEAC70A7C431E695D69D3F83B
:100790001CB01891CDF84480CDF84C901692CDF84D
:1007A0005CA01D94002102911A8E0299914280F260
:1007B0005981AA4A047812F80490A944C55D111918
:1007C00012F8058091F8004191F800A2464406EB2A
:1007D0004406119C0896045D5519165D95F800C1F4
:1007E00095F8005206EB0A0808EB4C0ADDF8488041
:1007F000CDF824A010F80810DDF84C80565C1419D0
:1008000006EB050A10F8085094F800C1565D94F8FC
:10081000004251180AEB4C0C361991F800A1149CB7
:1008200091F80012CDF828C006EB4A08065DCDF815
:100830002C80945DDDF85480551904EB010A95F87D
:10084000004195F800520AEB44010C9110F8081091
:100850009619545C641996F8005104EB45040D9404
:10086000169D96F80062DDF824A0DDF85C80A444B3
:10087000445DCDF86CC0155D5118AD1991F800615B
:1008800091F8001205EB460505EB0A060E9510F8E7
:1008900008501C961419565DDDF860A0711894F884
:1008A000006194F8004201EB460C08990CEB01063C
:1008B0001A9610F80A605519915D9219091995F860
:1008C000004192F8006195F8005201EB44012D249B
:1008D00001EB090804FB09BB10910899CDF864806D
:1008E0000BEB0C09DDF8288005EB460592F8006259
:1008F000242202FB019A152404FB08A9DDF824A098
:100900000C994FF01C0B0BFB0A994FF00A08DDF80D
:100910002CA008FB01994FF00F0B0E990BFB0A99C5
:100920004FF00308DDF834A008FB01994FF0060BE7
:100930000BFB0A99CDF80490DDF82CA00C994FF030
:100940004B0B51440BFB01F91B994FF0490A0AFB71
:10095000019B0699DDF868900BEB010A4FF03F0B05
:100960001C990BFB09AA4FF0450BDDF864900BFBBB
:1009700001AA4FF0370B0BFB09ABDDF824A00A9955
:1009800008FB0AF84FF00609DDF820A009FB0188F2
:100990000C99D0444FF00F09DDF82CA009FB018819
:1009A0000A21DDF8389001FB0A884FF01C0A0D99E6
:1009B0000AFB098804FB018A109C0F994FF02D094E
:1009C00009FB04A8DDF804A002FB0C820692AAF53C
:1009D0007A3971B1039C0599CDF8149004EB0902A2
:1009E000541A0F9A4FF48071544394FBF1F403941A
:1009F000A146079961B1049CC1F5807209FB01FC15
:100A000004FB02C94FF4807199FBF1F20492914604
:100A10001F9C04FB09F1002902DD10314C1103E099
:100A20001039202291FBF2F447F6BC718C42A8BF2A
:100A30000C46DA890299DDF874804A4308498C42F1
:100A4000A8BF21461E9C24F81210029A4044511C53
:100A5000A9E600BFCDB5E8B560150020000800206C
:100A60004480FFFF05981E615D61039E069D049C06
:100A700058629D61C3F81CB01E629C62104621B092
:100A8000BDE8F08F2DE9F04F95B0994C1392994A3B
:100A900012911168A14200D0FEE75E6A1D6A9F6A4A
:100AA0009A69998DB3F82E800C964FF00009D3F80F
:100AB00010C05E69D3F81CB00195029709920A91A3
:100AC000CDF83480CDF80C908B4904780D190C5D6D
:100AD00095F8007295F8008106EB070A067ACDF8C2
:100AE0002CA08F198E5D97F8002202EB4805AC44CC
:100AF000057C97F80081CDF810C04A194D5D92F839
:100B0000009292F8002109EB040A0AEB480C90F8D5
:100B100018A090F82090CDF814C001EB0A0494F8C6
:100B2000007294F80041BF1907EB420801EB09027B
:100B3000CDF8188092F8006292F80021771907EB3F
:100B4000440606EB080C90F8288011F80A70079606
:100B500001EB0805CDF840C095F8004295F800512A
:100B6000E619059F06EB4204E619119690F83060ED
:100B700008948C1911F8097094F80022D219049F76
:100B800002EB4502BD180F9590F8385011F8089007
:100B900094F80041DDF82C808E5D4F1997F800A283
:100BA00097F800710AEB090C0CEB4404DDF818A06F
:100BB00011F805C000941C2505FB082944440A21AE
:100BC000DDF8148001FB0A9906EB4706DDF820A04A
:100BD0000F2707FB0899032101FB0A99DDF81CA0E8
:100BE0004FF0060808FB0A99DDF810A0152101FB5B
:100BF0000A99CB44DDF84490CDF82CB04FF02E0A82
:100C00000AFB09FADDF840904FF0300B0BFB09AA04
:100C10004FF0240B0BFB04A90F9C4FF02A0A0AFB90
:100C2000049B099CDDF81890DDF810A0A344059CF6
:100C300008FB09A8DDF820A04FF0030909FB048890
:100C4000079C07FB0A890A2707FB0498DDF8009038
:100C5000DDF82CA00C9F05FB098501FB02520199D0
:100C60000992AAF500328C180D99DDF82880E51B51
:100C70004D434FF4807195FBF1F40194019F44467C
:100C80007C43029FC8EB010507FB054595FBF1F18D
:100C90000291139C6143002902DD0831091103E030
:100CA0000839102791FBF7F147F6BC75134C129FDA
:100CB0000C92A942A8BF2946039DA142B8BF214674
:100CC00079530C354030C02D03957FF4FDAE099863
:100CD000019C029D9861C3F810C05E61C3F81CB00E
:100CE0001C625A629D62102015B0BDE8F08F00BFF3
:100CF000CDB5E8B560150020000800204480FFFF56
:100D00002DE9F04FA1B084461F92BE4A1E91BE4805
:100D10001168814200D0FEE79E6A9F6905969E8910
:100D2000D98D01967000079703277E431190019893
:100D30009A8D0F9112960521019E08924843B200A8
:100D40001490019E01980199139206277E43072271
:100D5000C700514315961797019E019F1C6A5D6A53
:100D6000169109220A2156434F434FF0000804947C
:100D700006955C691D69D3F81CB018961D97CDF8CF
:100D80000C80188EDDF80C90814580F25A819F49C5
:100D90009CF80000DDF804900F181CF8096097F823
:100DA00000A297F80021085CA2448C198E5D94F88B
:100DB000008294F80041454405EB4207119D0997D4
:100DC0001CF805504A194D5D92F8007292F80081A6
:100DD0003F18129807EB44091CF80040CDF8289002
:100DE00008190C5D90F8007290F80001BF1907EB2C
:100DF0004809DDF84C80CDF82C901CF8089001EBE8
:100E00000902CDF8089092F8006292F80021771953
:100E1000149E1CF80690159E07EB400801EB090094
:100E2000CDF8308090F8005290F800012F1907EBB0
:100E300042081CF80670029DCDF83480CA194E5D38
:100E400092F80042A41904EB40050295DDF82C80CD
:100E5000169E92F80021CF5DA844CDF86C801CF856
:100E6000068011F80950DDF8609001EB080011F8D8
:100E7000088090F8004290F8000166190A9D06EB80
:100E80004204179A0E9466191C961CF802608C197D
:100E90008E5D94F8002294F80041D519099F05EB66
:100EA0004002D5191A951CF809504F194D5D97F855
:100EB000000297F80071404400EB44002D2100EB44
:100EC0000A0401FB0ABB1090099819940BEB020A63
:100ED00006EB470424210B9F01FB00A94FF01508E6
:100EE000DDF828A00D9808FB07964FF01C0B0BFBB4
:100EF0000A69DDF830800A2606FB009A0F27DDF824
:100F0000389007FB08AB4FF0030808FB09BADDF87F
:100F100008B0062000FB0BA9CDF80090DDF834A046
:100F2000DDF830B04FF04B090AEB0B0009FB00FA7B
:100F30001B984FF0490B0BFB00A9079809EB000A1F
:100F4000DDF868901C984FF03F0B0BFB09AA4FF09F
:100F5000450BDDF864900BFB00AA4FF0370B0BFB41
:100F600009ABDDF828A00B9808FB0AF84FF006093A
:100F7000DDF824A009FB00880D9808EB0A0907FB9F
:100F800000980C9FDDF83890029806FB07864FF01A
:100F90001C0A0AFB0968152707FB008610980F9F9B
:100FA0004FF02D0909FB006A01FB02A2DDF800A049
:100FB0000792AAF57A386FB10499069ECDF8188089
:100FC00001EB0800811B79434FF4807291FBF2F72B
:100FD0000497B846089860B1059908FB00F8C0F579
:100FE000807601FB06894FF4807299FBF2F7059732
:100FF000B8461F9800FB08F6002E09DD1036771161
:101000000AE000BF60150020CDB5E8B5000800205B
:10101000103E202196FBF1F7039ED8891049DDF898
:10102000748047F6BC729742A8BF17468F42A8BF8C
:10103000394670431E9F721C27F81010C444039257
:101040009FE65C61079C049A9C61059E069C1D615D
:10105000C3F81CB01A625C629E6221B0BDE8F08FDA
:101060004480FFFFAFF3008000000000000000009C
:101070004B1C012B98BF70472DE9F003911C9B0876
:10108000B1F80480B1F802900A8831F802CC8044AB
:10109000814402448444D9F80070D8F8006015688F
:1010A000DCF80040C9F80060C8F80070CCF80050C7
:1010B0001460D9F80470D8F804605568DCF804406E
:1010C000C9F80460C8F80470CCF8045054600831C2
:1010D000013BD5D1BDE8F00370474B1C012B98BFF5
:1010E00070472DE9F003911C9B08B1F80480B1F81A
:1010F00002900A8831F802CC00EB580800EB59093D
:1011000000EB520200EB5C0CD9F80070D8F80060DC
:101110001568DCF80040C9F80060C8F80070CCF829
:10112000005014600831013BDFD1BDE8F003704787
:1011300081F0004102E000BF83F0004330B54FEA88
:1011400041044FEA430594EA050F08BF90EA020FF5
:101150001FBF54EA000C55EA020C7FEA645C7FEA88
:10116000655C00F0E2804FEA5454D4EB5555B8BFAB
:101170006D420CDD2C4480EA020281EA030382EA1C
:10118000000083EA010180EA020281EA0303362DAE
:1011900088BF30BD11F0004F4FEA01314FF4801C81
:1011A0004CEA113102D0404261EB410113F0004F93
:1011B0004FEA03334CEA133302D0524263EB43034A
:1011C00094EA050F00F0A780A4F10104D5F1200EE8
:1011D0000DDB02FA0EFC22FA05F2801841F1000143
:1011E00003FA0EF2801843FA05F359410EE0A5F117
:1011F00020050EF1200E012A03FA0EFC28BF4CF048
:10120000020C43FA05F3C01851EBE37101F00045FD
:1012100007D54FF0000EDCF1000C7EEB00006EEB0A
:101220000101B1F5801F1BD3B1F5001F0CD3490894
:101230005FEA30004FEA3C0C04F101044FEA4452EB
:1012400012F5800F80F09A80BCF1004F08BF5FEA72
:10125000500C50F1000041EB045141EA050130BD52
:101260005FEA4C0C404141EB010111F4801FA4F1F5
:101270000104E9D191F0000F04BF01460020B1FA4A
:1012800081F308BF2033A3F10B03B3F120020CDA82
:101290000C3208DD02F1140CC2F10C0201FA0CF060
:1012A00021FA02F10CE002F11402D8BFC2F1200CC5
:1012B00001FA02F120FA0CFCDCBF41EA0C0190407B
:1012C000E41AA2BF01EB0451294330BD6FEA0404C4
:1012D0001F3C1CDA0C340EDC04F11404C4F12002AF
:1012E00020FA04F001FA02F340EA030021FA04F3C1
:1012F00045EA030130BDC4F10C04C4F1200220FA18
:1013000002F001FA04F340EA0300294630BD21FA55
:1013100004F0294630BD94F0000F83F4801306BF1B
:1013200081F480110134013D4EE77FEA645C18BF0F
:101330007FEA655C29D094EA050F08BF90EA020FA6
:1013400005D054EA000C04BF1946104630BD91EA9E
:10135000030F1EBF0021002030BD5FEA545C05D1A1
:101360004000494128BF41F0004130BD14F58004E0
:101370003CBF01F5801130BD01F0004545F0FE4154
:1013800041F470014FF0000030BD7FEA645C1ABF89
:10139000194610467FEA655C1CBF0B46024650EAC0
:1013A000013406BF52EA033591EA030F41F40021EC
:1013B00030BD00BF90F0000F04BF0021704730B572
:1013C0004FF4806404F132044FF000054FF0000147
:1013D00050E700BF90F0000F04BF0021704730B508
:1013E0004FF4806404F1320410F0004548BF4042DD
:1013F0004FF000013EE700BF42004FEAE2014FEA32
:1014000031014FEA02701FBF12F07F4393F07F4F0C
:1014100081F06051704732F07F4208BF704793F00F
:101420007F4F04BF41F40021704730B54FF4607422
:1014300001F0004521F000411CE700BF50EA010225
:1014400008BF704730B54FF000050AE050EA0102CE
:1014500008BF704730B511F0004502D5404261EB3E
:1014600041014FF4806404F132045FEA915C3FF47F
:10147000D8AE4FF003025FEADC0C18BF03325FEA1C
:10148000DC0C18BF033202EBDC02C2F1200300FACD
:1014900003FC20FA02F001FA03FE40EA0E0021FAF2
:1014A00002F11444BDE600BF00000000000000008F
:1014B00070B54FF0FF0C4CF4E06C1CEA11541DBFEA
:1014C0001CEA135594EA0C0F95EA0C0F00F0DEF8B5
:1014D0002C4481EA030621EA4C5123EA4C5350EA9A
:1014E000013518BF52EA033541F4801143F48013EB
:1014F00038D0A0FB02CE4FF00005E1FB02E506F07C
:101500000042E0FB03E54FF00006E1FB03569CF0D0
:10151000000F18BF4EF0010EA4F1FF04B6F5007FD6
:1015200064F5407404D25FEA4E0E6D4146EB060648
:1015300042EAC62141EA55514FEAC52040EA5E50D1
:101540004FEACE2EB4F1FD0C88BFBCF5E06F1ED87B
:10155000BEF1004F08BF5FEA500E50F1000041EBB2
:10156000045170BD06F0004646EA010140EA02005F
:1015700081EA0301B4EB5C04C2BFD4EB0C0541EA81
:10158000045170BD41F480114FF0000E013C00F396
:10159000AB8014F1360FDEBF002001F0004170BDBA
:1015A000C4F10004203C35DA0C341BDC04F11404D3
:1015B000C4F1200500FA05F320FA04F001FA05F25F
:1015C00040EA020001F0004221F0004110EBD3702C
:1015D00021FA04F642EB06015EEA430E08BF20EA58
:1015E000D37070BDC4F10C04C4F1200500FA04F3FB
:1015F00020FA05F001FA04F240EA020001F000418D
:1016000010EBD37041F100015EEA430E08BF20EAFF
:10161000D37070BDC4F1200500FA05F24EEA020E47
:1016200020FA04F301FA05F243EA020321FA04F076
:1016300001F0004121FA04F220EA020000EBD3702D
:101640005EEA430E08BF20EAD37070BD94F0000F2D
:101650000FD101F00046400041EB010111F4801F61
:1016600008BF013CF7D041EA060195F0000F18BF12
:10167000704703F00046520043EB030313F4801F4E
:1016800008BF013DF7D043EA0603704794EA0C0F08
:101690000CEA135518BF95EA0C0F0CD050EA41061E
:1016A00018BF52EA4306D1D181EA030101F000419B
:1016B0004FF0000070BD50EA410606BF10461946C3
:1016C00052EA430619D094EA0C0F02D150EA0136CF
:1016D00013D195EA0C0F05D152EA03361CBF104610
:1016E00019460AD181EA030101F0004141F0FE41AF
:1016F00041F470014FF0000070BD41F0FE4141F433
:10170000780170BD70B54FF0FF0C4CF4E06C1CEA32
:1017100011541DBF1CEA135594EA0C0F95EA0C0FE7
:1017200000F0A7F8A4EB050481EA030E52EA0335A2
:101730004FEA013100F088804FEA03334FF08055C3
:1017400045EA131343EA12634FEA022245EA1115F0
:1017500045EA10654FEA00260EF000419D4208BFA1
:10176000964244F1FD0404F5407402D25B084FEA4E
:101770003202B61A65EB03055B084FEA32024FF4FA
:1017800080104FF4002CB6EB020E75EB030E22BF57
:10179000B61A754640EA0C005B084FEA3202B6EB17
:1017A000020E75EB030E22BFB61A754640EA5C00C6
:1017B0005B084FEA3202B6EB020E75EB030E22BF56
:1017C000B61A754640EA9C005B084FEA3202B6EB57
:1017D000020E75EB030E22BFB61A754640EADC0016
:1017E00055EA060E18D04FEA051545EA16754FEA78
:1017F00006164FEAC30343EA52734FEAC2025FEA96
:101800001C1CC0D111F4801F0BD141EA00014FF024
:1018100000004FF0004CB6E711F4801F04BF0143F5
:101820000020B4F1FD0C88BFBCF5E06F3FF6AFAE11
:10183000B5EB030C04BFB6EB020C5FEA500C50F1A1
:10184000000041EB045170BD0EF0004E4EEA113124
:1018500014EB5C04C2BFD4EB0C0541EA045170BD2B
:1018600041F480114FF0000E013C90E645EA060E6F
:101870008DE60CEA135594EA0C0F08BF95EA0C0F9D
:101880003FF43BAF94EA0C0F0AD150EA01347FF4E5
:1018900034AF95EA0C0F7FF425AF104619462CE7BC
:1018A00095EA0C0F06D152EA03353FF4FDAE10461F
:1018B000194622E750EA410618BF52EA43067FF470
:1018C000C5AE50EA41047FF40DAF52EA43057FF400
:1018D000EBAE12E700000000000000000000000076
:1018E0004FF0FF3C06E000BF4FF0010C02E000BFEC
:1018F0004FF0010C4DF804CD4FEA410C7FEA6C5CCF
:101900004FEA430C18BF7FEA6C5C1BD001B050EA71
:10191000410C0CBF52EA430C91EA030F02BF90EA5C
:10192000020F0020704710F1000F91EA030F58BF1B
:10193000994208BF90422CBFD8176FEAE37040F07D
:10194000010070474FEA410C7FEA6C5C02D150EA1B
:10195000013C07D14FEA430C7FEA6C5CD6D152EAD6
:10196000033CD3D05DF8040B704700BF844610469B
:1019700062468C461946634600E000BF01B5FFF79A
:10198000B7FF002848BF10F1000F01BD4DF808ED6A
:10199000FFF7F4FF0CBF012000205DF808FB00BF3B
:1019A0004DF808EDFFF7EAFF34BF012000205DF895
:1019B00008FB00BF4DF808EDFFF7E0FF94BF0120E2
:1019C00000205DF808FB00BF4DF808EDFFF7CEFFE3
:1019D00094BF012000205DF808FB00BF4DF808ED22
:1019E000FFF7C4FF34BF012000205DF808FB00BFF3
:1019F0004FEA410212F5001215D211D56FF4787337
:101A0000B3EB625212D94FEAC12343F0004343EAD9
:101A1000505311F0004F23FA02F018BF40427047B4
:101A20004FF00000704750EA013005D111F000403E
:101A300008BF6FF0004070474FF00000704700BFD4
:101A40004A0011D212F5001211D20DD56FF478733D
:101A5000B3EB62520ED44FEAC12343F0004343EA92
:101A6000505323FA02F070474FF00000704750EADD
:101A7000013002D14FF0FF3070474FF00000704747
:101A80004FEA4102B2F1E04324BFB3F5001CDCF1A0
:101A9000FE5C0DD901F0004C4FEAC0024CEA5070D8
:101AA000B2F1004F40EB830008BF20F00100704707
:101AB00011F0804F21D113F13872BCBF01F000400A
:101AC000704741F480114FEA5252C2F11802C2F13C
:101AD000200C10FA0CF320FA02F018BF40F00100BD
:101AE0004FEAC1234FEAD32303FA0CFC40EA0C006F
:101AF00023FA02F34FEA4303CCE77FEA625307D1AC
:101B000050EA01331EBF4FF0FE4040F440007047E2
:101B100001F0004040F0FE4040F40000704700BF7C
:101B200053B94AB9002908BF00281CBF4FF0FF3144
:101B30004FF0FF3000F074B9ADF1080C6DE904CE40
:101B400000F006F8DDF804E0DDE9022304B0704798
:101B50002DE9F047089E04468846002B4BD18A4267
:101B6000154667D9B2FA82F24AB1C2F1200701FAEA
:101B700002F320FA07F7954047EA030894404FEA3A
:101B8000154E230CB8FBFEF71FFA85FC0EFB1788D9
:101B900043EA084307FB0CF1994209D9EB1807F116
:101BA000FF3080F01B81994240F21881023F2B44A4
:101BB0005B1AA4B2B3FBFEF00EFB103344EA0344FD
:101BC00000FB0CFCA44509D92C1900F1FF3380F06F
:101BD0000781A44540F2048102382C4440EA0740C2
:101BE000A4EB0C0400271EB1D4400023C6E9004337
:101BF0003946BDE8F0878B4209D9002E00F0EB8012
:101C00000027C6E9000138463946BDE8F087B3FA37
:101C100083F7002F47D18B4202D3824200F2FA8031
:101C2000841A61EB030301209846002EE0D0C6E938
:101C30000048DDE702B9FFDEB2FA82F2002A40F086
:101C40008F80491B4FEA154E1FFA85F80127B1FB1B
:101C5000FEFC230C0EFB1C1143EA014308FB0CF1B4
:101C6000994207D9EB180CF1FF3002D2994200F2E9
:101C7000CD808446591AA3B2B1FBFEF00EFB1014BE
:101C800043EA044408FB00F8A04507D92C1900F1E9
:101C9000FF3302D2A04500F2B6801846A4EB080438
:101CA00040EA0C409FE7C7F1200CBB4022FA0CFE33
:101CB0004EEA030E01FA07F420FA0CF521FA0CF3B0
:101CC0004FEA1E482543B3FBF8F92C0C08FB1933E7
:101CD0001FFA8EFA44EA034309FB0AF49C4202FA13
:101CE00007F200FA07F10BD91EEB030309F1FF30ED
:101CF00080F087809C4240F28480A9F102097344FD
:101D00001B1BADB2B3FBF8F008FB103345EA0344EC
:101D100000FB0AFAA24508D91EEB040400F1FF33C8
:101D20006BD2A24569D90238744440EA0940A0FB4D
:101D30000289A4EB0A044C45C2464B4654D351D009
:101D4000002E69D0B1EB0A0564EB030404FA0CFC25
:101D5000FD40FC404CEA0505C6E90054002747E772
:101D6000C2F1200320FA03F7954001FA02F021FAAC
:101D700003F34FEA154E3843010CB3FBFEF71FFA8D
:101D800085F80EFB173341EA034107FB08F38B424A
:101D900004FA02F407D9691807F1FF3C2FD28B42ED
:101DA0002DD9023F2944CB1A81B2B3FBFEF00EFBC2
:101DB000103341EA034100FB08F38B4207D969184D
:101DC00000F1FF3C17D28B4215D902382944C91AB9
:101DD00040EA07473BE73746304609E70746E7E66C
:101DE0001846FBE64145ABD2B8EB020A69EB0E029E
:101DF00001381346A4E76046E9E7184695E76746C9
:101E0000D1E781467CE702382C4447E7ACF1020C6D
:101E10002B442FE7384608E73746E9E60000000084
:101E2000704700BF0000000000000000000000003C
:101E3000844641EA000313F003036DD1403A41D3D5
:101E400051F8043B40F8043B51F8043B40F8043B94
:101E500051F8043B40F8043B51F8043B40F8043B84
:101E600051F8043B40F8043B51F8043B40F8043B74
:101E700051F8043B40F8043B51F8043B40F8043B64
:101E800051F8043B40F8043B51F8043B40F8043B54
:101E900051F8043B40F8043B51F8043B40F8043B44
:101EA00051F8043B40F8043B51F8043B40F8043B34
:101EB00051F8043B40F8043B51F8043B40F8043B24
:101EC000403ABDD2303211D351F8043B40F8043BC4
:101ED00051F8043B40F8043B51F8043B40F8043B04
:101EE00051F8043B40F8043B103AEDD20C3205D3D4
:101EF00051F8043B40F8043B043AF9D2043208D0CC
:101F0000D2071CBF11F8013B00F8013B01D30B883D
:101F100003806046704700BF082A13D38B078DD01B
:101F200010F003038AD0C3F10403D21ADB071CBFED
:101F300011F8013B00F8013B80D331F8023B20F857
:101F4000023B7BE7043AD9D3013A11F8013B00F890
:101F5000013BF9D20B7803704B7843708B78837018
:101F60006046704700000000000000000000000014
:101F700090F800F06DE9024520F007016FF0000CC9
:101F800010F0070491F820F040F049804FF0000471
:101F90006FF00700D1E9002391F840F000F108004C
:101FA00082FA4CF2A4FA8CF283FA4CF3A2FA8CF384
:101FB0004BBBD1E9022382FA4CF200F10800A4FAEB
:101FC0008CF283FA4CF3A2FA8CF3E3B9D1E904233F
:101FD00082FA4CF200F10800A4FA8CF283FA4CF376
:101FE000A2FA8CF37BB9D1E9062301F1200182FA30
:101FF0004CF200F10800A4FA8CF283FA4CF3A2FA36
:102000008CF3002BC6D0002A04BF04301A4612BA43
:10201000B2FA82F2FDE8024500EBD2007047D1E946
:10202000002304F00305C4F100004FEAC50514F0D5
:10203000040F91F840F00CFA05F562EA05021CBFA6
:1020400063EA050362464FF00004A9E700000000C0
:1020500001F0FF01102A2BDB10F0070F08D010F859
:10206000013B013A8B422DD010F0070F42B3F6D15D
:10207000F0B441EA012141EA014122F007047FF076
:1020800000070023F0E80256083C85EA010586EACD
:10209000010685FA47F5A3FA87F586FA47F6A5FA09
:1020A00087F68EB9EED1F0BC01F0FF0102F0070215
:1020B00032B110F8013B013A83EA010313B1F8D1C0
:1020C0000020704701387047002D06BF35460338A1
:1020D000073815F0010F07D1013015F4807F02BFDA
:1020E000013015F4C03F0130F0BC0138704700BF2B
:1020F0004FEA410C7FEA6C5C02D150EA013C0AD104
:102100004FEA430C7FEA6C5C02D152EA033C02D1F5
:102110004FF0000070474FF00100704700000000D2
:1021200000B583B0084B1B6801930849084808F0C4
:1021300067FA00BF044B019A1B689A4201D000F075
:102140002FF803B05DF804FB000B0020040B002007
:102150005CD0002000000000000000000000000033
:1021600000B583B0094B1B68019306F0B1F903F089
:102170000FF801F0EDFFFFF7D3FF02F0E9FC02F0EA
:1021800037FB034801F0DCF9FEE700BF000B00203D
:1021900041260008000000000000000000000000D0
:1021A00000B583B0084B1B680193084803F048F85A
:1021B00000BF054B019A1B689A4201D0FFF7F0FF60
:1021C00003B05DF804FB00BF000B0020C0750108E0
:1021D00000B585B003460091ADF806300C4B1B6886
:1021E0000393BDF80630B3F5806F05D101230022BB
:1021F0000099084811F09CF800BF054B039A1B6832
:102200009A4201D0FFF7CCFF05B05DF804FB00BF98
:10221000000B002000770108000000000000000013
:1022200000B585B08DED010A00904B4B1B68039300
:10223000DDED017AFDEEE77A17EE903A002BB8BF9C
:102240005B4207EE903AF8EEE77AB0EE047AF4EEED
:10225000C77AF1EE10FA08DD4FF47A7002F088FACE
:102260004FF47A7002F0A4FA6BE0DDED017AFDEE36
:10227000E77A17EE903A002BB8BF5B4207EE903A30
:10228000F8EEE77AB0EE047AF4EEC77AF1EE10FADF
:1022900019D5009B012B09D1304B1B68643B2F4A99
:1022A00013602F4B1B6864332D4A1360009B002B77
:1022B00009D12B4B1B68643B294A1360274B1B68D1
:1022C0006433264A1360264B1B68B3F57A7F03DD1F
:1022D000234B4FF47A721A60204B1B68B3F57A7F58
:1022E00003DD1E4B4FF47A721A601D4B1B68632B83
:1022F00002DC1B4B64221A60184B1B68632B02DC48
:10230000164B64221A60DDED017AFDEEE77A17EED6
:10231000903A002BB8BF5B4207EE903AF8EEE77AAE
:10232000B0EE047AF4EEC77AF1EE10FA09D50C4B50
:102330001B68184602F01CFA084B1B68184602F08E
:1023400037FA054B039A1B689A4201D0FFF728FF22
:1023500005B05DF804FB00BF000B002070A5002055
:102360006CA500200000000000000000000000003C
:1023700000B593B0039002910192AB4B1B6811938F
:10238000AA4B0693A94B0893A84B09934FF000035F
:102390000A934FF000030B934FF000030C9342237A
:1023A000ADF816304FF000030D93BDF916309B00C9
:1023B000039A13441B680693DDED067A9FED9C7A21
:1023C000F4EEC77AF1EE10FA40F30E81BDF9163043
:1023D00003F18043013B9B00039A134493ED007A81
:1023E000BDF916309B00039A1344D3ED007A37EE03
:1023F000277ABDF9163001339B00039A1344D3EDBD
:10240000007A37EE277AF0EE086AC7EE267ACDED2D
:10241000067ABDF9163003F18043013B9B00029A16
:10242000134493ED007ABDF916309B00029A1344D1
:10243000D3ED007A37EE277ABDF9163001339B00D1
:10244000029A1344D3ED007A37EE277AF0EE086A49
:10245000C7EE267ACDED087ABDF9163003F1804338
:10246000013B9B00019A134493ED007ABDF91630AD
:102470009B00019A1344D3ED007A37EE277ABDF919
:10248000163001339B00019A1344D3ED007A37EEE6
:10249000277AF0EE086AC7EE267ACDED097A9DED2F
:1024A000067ADDED067A67EE277ACDED0A7A9DEDA4
:1024B000087ADDED087A67EE277ACDED0B7A9DED8F
:1024C000097ADDED097A67EE277ACDED0C7A9DED7C
:1024D0000A7ADDED0C7A27EE277ADDED0B6ADDED69
:1024E0000C7A66EEA77A77EE677AF5EEC07AF1EEAF
:1024F00010FA02DD0023079301E0012307934FF058
:1025000000030E934FF000030F93DDED0A7A37EED0
:10251000A77ADDED0B7A27EE277ADDED0B6ADDED8C
:102520000C7A66EEA77A37EE677ADDED0A6ADDEDA2
:102530000C7A66EEA77A77EE677ACDED0E7A9DED8E
:102540000A7ADDED0C7A27EE277ADDED0B6ADDEDF8
:102550000C7A66EEA77A77EE677ACDED0F7ADDED2D
:102560000E0A9DED0F0A10F09BF98DED0D0A314B0F
:10257000D3ED007A9DED0D7A77EE677AFDEEE77A7E
:1025800017EE903A002BB8BF5B4207EE903AF8EE98
:10259000E77A9FED297AF4EEC77AF1EE10FA15D5B5
:1025A000244B93ED007ADDED0D7A37EE277AF0EECD
:1025B000006AC7EE267ACDED107A1E4A0D9B136095
:1025C00007989DED100AFFF72BFE0DE0194B93EDD8
:1025D000007ADDED0D7A37EE277AF0EE006AC7EE6D
:1025E000267A144BC3ED007ADDED067A9FED107A62
:1025F000F4EEC77AF1EE10FA05D5002002F0B8F833
:10260000002002F0D5F80D4B1B6801330B4A136014
:1026100000BF054B119A1B689A4201D0FFF7C0FD1D
:1026200013B05DF804FB00BF000B002000409C4588
:1026300000409C4564A500209A99993E68A5002019
:1026400000B585B001900B46ADF80230564B1B68C3
:1026500003930023ADF80A3065E0BDF80A305B0053
:10266000019A1344B3F90020504B1B8807EE902ABF
:10267000F8EEE77A4E4A9B001344C3ED007ABDF8AA
:102680000A3001335B00019A1344B3F90020474B31
:102690001B8807EE902AF8EEE77A464A9B0013441F
:1026A000C3ED007ABDF80A3003335B00019A13448E
:1026B000B3F900203D4B1B8807EE902AF8EEE77A2D
:1026C0003D4A9B001344C3ED007A384B1B8801330D
:1026D0009AB2364B1A80354B1B88354A9B001344FF
:1026E0004FF000021A60314B1B88324A9B001344A2
:1026F0004FF000021A602D4B1B882F4A9B00134499
:102700004FF000021A60294B1B8801339AB2274B05
:102710001A80264B1B88B3F5006F0BD2BDF80A3028
:102720000433ADF80A30BDF80A20BDF802309A42F1
:1027300093D300E000BF1D4B1B88B3F5006F28D377
:102740001B494FF48060FFF743FD1A494FF4806046
:10275000FFF73EFD18494FF48060FFF739FD4FF455
:1027600080621649124810F063FE4FF480621449EB
:10277000104810F05DFE4FF4806212490E4810F0D0
:1027800057FE0A4B00221A800E4A0D490B48FFF7EC
:10279000EFFD00BF044B039A1B689A4201D0FFF77C
:1027A000FFFC05B05DF804FB000B002074A50020C1
:1027B00064350020641500206455002064850020E5
:1027C00064750020649500200000000000000000F7
:1027D00000B583B0094B1B68019320230093009B35
:1027E00083F3118800BF054B019A1B689A4201D000
:1027F000FFF7D6FC03B05DF804FB00BF000B002020
:1028000000B583B0094B1B68019300230093009B24
:1028100083F3118800BF054B019A1B689A4201D0CF
:10282000FFF7BEFC03B05DF804FB00BF000B002007
:1028300000B583B0074B1B680193FFF7C9FF00BFCA
:10284000044B019A1B689A4201D0FFF7A9FC03B020
:102850005DF804FB000B00200000000000000000F9
:1028600000B583B0074B1B680193FFF7C9FF00BF9A
:10287000044B019A1B689A4201D0FFF791FC03B008
:102880005DF804FB000B00200000000000000000C9
:1028900000B583B0094B1B680193FFF7C9FF04F033
:1028A00057FA02F04DFE00BF044B019A1B689A4292
:1028B00001D0FFF775FC03B05DF804FB000B0020AE
:1028C00000B583B0094B1B68019302F061FE04F070
:1028D00057FAFFF7C5FF00BF044B019A1B689A42E5
:1028E00001D0FFF75DFC03B05DF804FB000B002096
:1028F00000B585B00190084B1B680393019802F066
:102900009FFC00BF044B039A1B689A4201D0FFF75B
:1029100047FC05B05DF804FB000B00200000000040
:1029200000B583B0074B1B680193FFF7B1FF00BFF1
:10293000044B019A1B689A4201D0FFF731FC03B0A7
:102940005DF804FB000B0020000000000000000008
:1029500000B583B0074B1B680193FFF7B1FF00BFC1
:10296000044B019A1B689A4201D0FFF719FC03B08F
:102970005DF804FB000B00200000000000000000D8
:1029800000B585B001900091084B1B680393009936
:10299000019803F09DFF00BF044B039A1B689A4205
:1029A00001D0FFF7FDFB05B05DF804FB000B002034
:1029B00000B585B0019000912C4B1B680393009BE0
:1029C00003F00C03002B02D02948FFF791FF009B76
:1029D00003F02003002B2AD0019B5B681B68002BAF
:1029E00017D0019B04221A70019B5B681B68019A37
:1029F0005268D2685108019A5268D2685208019808
:102A00009847019B1B78042B06D1019B02221A7068
:102A100002E0019B02221A70FFF782FF019B08333C
:102A200000211846FFF7ACFFFFF792FF13E0009B71
:102A300003F01003002B0ED0019B5B681B68002B7A
:102A400009D0019B5B681B68019A5268D2685208E2
:102A500000210198984700BF044B039A1B689A42D3
:102A600001D0FFF79DFB05B05DF804FB000B0020D3
:102A7000E0750108000000000000000000000000F8
:102A800000B585B0019000912C4B1B680393009B0F
:102A900003F00C03002B02D02948FFF729FF009B0D
:102AA00003F02003002B2AD0019B5B681B68002BDE
:102AB00017D0019B04221A70019B5B681B68019A66
:102AC0005268D2685108019A5268D2685208019837
:102AD0009847019B1B78042B06D1019B02221A7098
:102AE00002E0019B02221A70FFF71AFF019B0833D4
:102AF00000211846FFF744FFFFF72AFF13E0009B71
:102B000003F01003002B0ED0019B5B681B68002BA9
:102B100009D0019B5B681B68019A5268D268520811
:102B200000210198984700BF044B039A1B689A4202
:102B300001D0FFF735FB05B05DF804FB000B00206A
:102B4000E075010800000000000000000000000027
:102B500000B583B0114B1B680193114B4FF6FF7208
:102B60001A80104800F024FB0E4B0F4A1A620D4BDE
:102B70000E4A5A620B4B0E4A9A620A4B0D4ADA62AF
:102B8000084B0D4A1A6300BF044B019A1B689A4216
:102B900001D0FFF705FB03B05DF804FB000B00203C
:102BA00076A500208CA50020003C0040E87F0108AD
:102BB0000C8001081E010100460001000000000019
:102BC00000B585B00190444B1B680393019B1B78B3
:102BD000012B3BD1019B414A934227D1019B586A6B
:102BE000019B3F4A0A2109F0E3FF03468DF80B30B1
:102BF0009DF80B30002B02D03A4802F021FB019BDC
:102C0000986A019B384A0A2109F0D2FF03468DF8E1
:102C10000B309DF80B30002B02D0324802F010FB35
:102C2000324B1B6C314A43F400431364019B1B6A13
:102C300003F10C02019B5B6A1B689A60019B1B6A93
:102C400003F10C02019B9B6A1B689A60019B5B6805
:102C50005B8903F40063002B0CD1019BDB6A23F436
:102C6000F042019BDA62019B1B6B23F4F042019B53
:102C70001A630FE0019BDB6A23F4F04343F4205214
:102C8000019BDA62019B1B6B23F4F04343F4205257
:102C9000019B1A63019B1B6A00221A60019B5B68FF
:102CA0005A89019B1B6A1A60019B1B6A03225A60A6
:102CB000019B1B6A1A68019B1B6A42F040021A6062
:102CC00000BF054B039A1B689A4201D0FFF768FAD0
:102CD00005B05DF804FB00BF000B00208CA50020B0
:102CE000B129000810770108812A00080038024045
:102CF00000B587B00390029101920093224B1B68AC
:102D00000593039B5B6A1B68009ADA60039B5B6A0E
:102D10001B68029A5A60039BDA6A039B5B6A1B6812
:102D200042F480621A60039B9B6A1B68019ADA6016
:102D3000039B9B6A1B68029A5A60039B1A6B039B56
:102D40009B6A1B6842F480621A60039B5B6A1B6883
:102D50001A68039B5B6A1B6842F001021A60039BBE
:102D60009B6A1B681A68039B9B6A1B6842F00102FE
:102D70001A6000BF044B059A1B689A4201D0FFF706
:102D80000FFA07B05DF804FB000B00200000000004
:102D900000B583B0074B1B680193074B9B6A18462D
:102DA000044B019A1B689A4201D0FFF7F9F903B06E
:102DB0005DF804FB000B002038C20020000000007A
:102DC00000B587B00390029101920C4B1B680593EC
:102DD000039A029BD21A0199029BCB1A9A4234BFE2
:102DE00001230023DBB21846044B059A1B689A4264
:102DF00001D0FFF7D5F907B05DF804FB000B002008
:102E000000B583B0084B1B680193FFF7C1FF034671
:102E10001846054B019A1B689A4201D0FFF7C0F98A
:102E200003B05DF804FB00BF000B002000000000B1
:102E300000B587B00390029101920A4B1B6805937D
:102E4000019A02990398FFF7BBFF03461846054B0A
:102E5000059A1B689A4201D0FFF7A2F907B05DF806
:102E600004FB00BF000B0020000000000000000079
:102E700000B585B03E4B1B68039303F0F1FE02F0F2
:102E8000AFFB3C4B1B690293029B03F00103002B39
:102E90003DD0384B5B69374A43F001035361364BF1
:102EA0001B78042B0CBF012300238DF80630324B16
:102EB0001B78022B0CBF012300238DF807302E4B0B
:102EC0001B78072B48D02C4B1B78062B44D02A4B61
:102ED00005221A70284B5B681B68002B04D0264B18
:102EE0005B681B68244898479DF80630002B03D088
:102EF000214B02221A700AE09DF80730002B03D004
:102F00001D4B02221A7002E01B4B03221A70029B17
:102F100003F00203002B1AD0164B5B69154A43F0ED
:102F200002035361144B1B78032B02D1124800F0AB
:102F300027F8114B06221A700F4B5B689B68002B19
:102F400005D00D4B5B689B6801210B48984702F048
:102F500077FB05F055FA00E000BF054B039A1B68AC
:102F60009A4201D0FFF71CF905B05DF804FB00BFE1
:102F7000000B00200000055078A500200000000094
:102F800000B587B001901D4B1B680593019B1B7812
:102F9000032B27D1019B9B681A68019B9B6822F039
:102FA00001021A60FFF72CFF0390039BC8330493C0
:102FB000019B9B681B6803F00103002B01D10023D8
:102FC00011E0FFF71DFF0346049A03991846FFF727
:102FD0002FFF034683F00103DBB2002BE8D04FF054
:102FE000FF3300E000231846044B059A1B689A4201
:102FF00001D0FFF7D5F807B05DF804FB000B002007
:1030000000B583B0094B1B68019320230093009BFC
:1030100083F3118800BF054B019A1B689A4201D0C7
:10302000FFF7BEF803B05DF804FB00BF000B002003
:1030300000B583B0094B1B68019300230093009BEC
:1030400083F3118800BF054B019A1B689A4201D097
:10305000FFF7A6F803B05DF804FB00BF000B0020EB
:1030600000B583B0094B1B680193FFF7C9FF03F05C
:103070003FFE02F015FA00BF044B019A1B689A420A
:1030800001D0FFF78DF803B05DF804FB000B0020C2
:1030900000B583B0114B1B68019302F029FA03F0CD
:1030A0003FFE0F4B1B680E4A93420AD00C4B9B69A4
:1030B0009A680B4B1B689B689A4202D2094802F03F
:1030C000BFF8FFF7B5FF00BF044B019A1B689A4297
:1030D00001D0FFF765F803B05DF804FB000B00209A
:1030E00038C2002040770108000000000000000006
:1030F00000B583B0074B1B680193FFF7B1FF00BF1A
:10310000044B019A1B689A4201D0FFF749F803B0BB
:103110005DF804FB000B0020000000000000000030
:1031200000B583B0074B1B680193FFF7B1FF00BFE9
:10313000044B019A1B689A4201D0FFF731F803B0A3
:103140005DF804FB000B0020000000000000000000
:1031500000B585B00190084B1B680393019804F0FB
:103160008FF900BF044B039A1B689A4201D0FFF706
:1031700017F805B05DF804FB000B0020000000000C
:1031800000B583B0074B1B680193FFF7E1FC00BF5C
:10319000044B019A1B689A4201D0FFF701F803B073
:1031A0005DF804FB000B00200000000000000000A0
:1031B00000B585B001900E4B1B680393019B012263
:1031C0001A70019B00225A60019B00229A60019BA9
:1031D0000C331846FFF7BCFF00BF054B039A1B6872
:1031E0009A4201D0FEF7DCFF05B05DF804FB00BF9A
:1031F000000B0020000000000000000000000000A4
:1032000000B585B001900091174B1B680393019B9B
:10321000002B02D0009B002B02D1144802F010F8C2
:10322000FFF766FF019B1B78012B06D0019B1B78E3
:10323000022B02D00D4802F003F8019B009A5A605D
:103240000198FFF7BDFC019B02221A70FFF768FF8F
:1032500000BF054B039A1B689A4201D0FEF7A0FFFE
:1032600005B05DF804FB00BF000B002030770108BB
:1032700000B587B00390029101920093184B1B6830
:103280000593039B002B08D0029B002B05D0009BCD
:10329000002B02D0019B002B02D1124801F0D0FF7D
:1032A000FFF726FF039B1B78022B02D00D4801F08D
:1032B000C7FF039B03221A70009B019A029903988F
:1032C000FFF716FDFFF72CFF00BF054B059A1B68A3
:1032D0009A4201D0FEF764FF07B05DF804FB00BF1F
:1032E000000B0020507701080000000000000000E3
:1032F00000B589B001900B46ADF802308C4B1B68CD
:10330000079303AB00221A605A604FF40043ADF8F4
:103310000C3005AB00221A605A6047F6FF73ADF817
:103320001430844B01221A700023ADF80A30B0E04B
:10333000BDF80A3001335B00019A1344B3F9002051
:10334000BDF90E309A4209DDBDF80A3001335B0049
:10335000019A1344B3F90030ADF80E30BDF80A30CD
:1033600001335B00019A1344B3F90020BDF9163014
:103370009A4209DABDF80A3001335B00019A13441E
:10338000B3F90030ADF81630BDF80A305B00019A91
:103390001344B3F90020BDF90C309A4208DDBDF8A2
:1033A0000A305B00019A1344B3F90030ADF80C30D9
:1033B000BDF80A305B00019A1344B3F90020BDF94F
:1033C00014309A4208DABDF80A305B00019A1344BF
:1033D000B3F90030ADF81430BDF80A3003335B00A8
:1033E000019A1344B3F90020BDF912309A4209DD65
:1033F000BDF80A3003335B00019A1344B3F900307F
:10340000ADF81230BDF80A3003335B00019A134463
:10341000B3F90020BDF91A309A4209DABDF80A3032
:1034200003335B00019A1344B3F90030ADF81A304E
:10343000BDF80A3002335B00019A1344B3F900204F
:10344000BDF910309A4209DDBDF80A3002335B0045
:10345000019A1344B3F90030ADF81030BDF80A30CA
:1034600002335B00019A1344B3F90020BDF9183010
:103470009A4209DABDF80A3002335B00019A13441C
:10348000B3F90030ADF81830BDF80A300433ADF8A8
:103490000A30BDF80A20BDF802309A42FFF448AF66
:1034A000BDF90C309AB2BDF914309BB2D31A9AB25E
:1034B000214B1A80BDF90E309AB2BDF916309BB27D
:1034C000D31A9AB21C4B5A80BDF910309AB2BDF98A
:1034D00018309BB2D31A9AB2174B9A80BDF91230AA
:1034E0009AB2BDF91A309BB2D31A9AB2124BDA8053
:1034F000019BB3F9F824114B1A80019BB3F9FA240C
:103500000E4B5A80019BB3F9FC240C4B9A80019B13
:10351000B3F9FE24094BDA8000BF054B079A1B68FC
:103520009A4201D0FEF73CFE09B05DF804FB00BFF3
:10353000000B0020D0A50020C0A50020C8A50020B9
:1035400000B585B00190614B1B680393604B1B78FD
:10355000012B40F0B0805F4B5B6C5E4A43F48033DC
:1035600053645C4B5B6A5B4A43F480335362594B50
:1035700000225A62584B00221A61574B0022DA602F
:10358000554B1B6A544A23F001031362524B9B694B
:10359000514A23F0030393614F4B9B694E4A43F01A
:1035A000010393614C4B9B694B4A23F0F0039361F9
:1035B000494B1B6A484A23F00A031362464B9B6936
:1035C000454A23F00C039361434B9B68424A23F026
:1035D00070039360404B9B683F4A43F050039360F5
:1035E0003D4B9B683C4A23F4803323F007039360F0
:1035F000394B9B68384A43F007039360364B1B688E
:10360000354A23F440731360334B0122DA62324BA4
:1036100000229A62304B01225A612F4B1B6A2E4ABC
:1036200023F0100313622C4B9B692B4A23F4407345
:103630009361294B9B69284A23F0807323F4E0436C
:103640009361254B9B69244A43F4C0439361224B09
:103650001B6A214A23F0A00313621F4B01229A63C5
:103660001D4B9B691C4A43F4006393611A4B1B6A10
:10367000194A23F480631362174B1B6A164A43F0FE
:1036800011031362144B1B68134A43F001031360C8
:1036900002AB04220021184610F062FD019B002BB2
:1036A00002D0019B029301E00C4B029302AB18463F
:1036B00000F0AEFB00E000BF044B039A1B689A4287
:1036C00001D0FEF76DFD05B05DF804FB000B002096
:1036D00074CF00200038024000400140F132000861
:1036E00000B583B0094B1B68019320230093009B16
:1036F00083F3118800BF054B019A1B689A4201D0E1
:10370000FEF74EFD03B05DF804FB00BF000B002088
:1037100000B583B0094B1B68019300230093009B05
:1037200083F3118800BF054B019A1B689A4201D0B0
:10373000FEF736FD03B05DF804FB00BF000B002070
:1037400000B583B0074B1B680193FFF7C9FF00BFAB
:10375000044B019A1B689A4201D0FEF721FD03B089
:103760005DF804FB000B00200000000000000000DA
:1037700000B583B0074B1B680193FFF7C9FF00BF7B
:10378000044B019A1B689A4201D0FEF709FD03B071
:103790005DF804FB000B00200000000000000000AA
:1037A00000B583B0094B1B680193FFF7C9FF03F015
:1037B000CFFA01F0C5FE00BF044B019A1B689A4284
:1037C00001D0FEF7EDFC03B05DF804FB000B002018
:1037D00000B583B0094B1B68019301F0D9FE03F0DB
:1037E000CFFAFFF7C5FF00BF044B019A1B689A424E
:1037F00001D0FEF7D5FC03B05DF804FB000B002000
:1038000000B583B0074B1B680193074B9B691846B3
:10381000044B019A1B689A4201D0FEF7C1FC03B029
:103820005DF804FB000B002038C2002000000000FF
:1038300000B583B00C4B1B680193FFF7E1FF034613
:1038400093F8213003F00403002B14BF012300235D
:10385000DBB21846044B019A1B689A4201D0FEF76E
:103860009FFC03B05DF804FB000B0020000000008B
:1038700000B585B00190094B1B680393084B9B6909
:10388000019A9A6100BF054B039A1B689A4201D0C6
:10389000FEF786FC05B05DF804FB00BF000B0020BE
:1038A00038C20020000000000000000000000000FE
:1038B00000B583B04E4B1B68019300238DF8033095
:1038C0004C4B1B6B4B4A43F48053136300238DF81E
:1038D00003307CE09DF80330474A342101FB03F3B9
:1038E00013440433454A1A609DF80330424A342198
:1038F00001FB03F313440833414A1A609DF8033077
:103900003D4A342101FB03F313444FF47A521A80E9
:103910009DF80330384A342101FB03F313440E337E
:1039200002221A809DF80330334A342101FB03F34D
:1039300013440C3302221A809DF80330342202FB18
:1039400003F32D4A13441846FCF7DAFC9DF80330C4
:103950002C4A342101FB03F313440433274A1A6031
:103960009DF80330274A342101FB03F31344083345
:10397000234A1A609DF80330224A342101FB03F3E5
:1039800013444FF47A521A809DF803301D4A3421B3
:1039900001FB03F313440E3302221A809DF8033017
:1039A000184A342101FB03F313440C3302221A801A
:1039B0009DF80330342202FB03F3124A13441846E5
:1039C000FCF79EFC9DF8033001338DF803309DF821
:1039D0000330012B7FF67EAF00BF054B019A1B68B9
:1039E0009A4201D0FEF7DCFB03B05DF804FB00BF98
:1039F000000B00200038024024BE00200000FA45E1
:103A0000000020418CBE00200000000000000000EB
:103A100000B589B00190A84B1B680793A748FFF732
:103A200027FF0023049300238DF80E306EE1A44895
:103A300003F006FBA24803F003FBFFF7F9FE034681
:103A4000002B40F06D819F4B1B685B0004335B00D3
:103A50009C4A134405939C4B1B685B0003F58273DF
:103A60005B00994A134406930023049386E0049B69
:103A70005B00059A13441B788DF80F30049B5B00A4
:103A80000133059A13441B788DF80E309DF80F30E2
:103A900003F055038D4AD35C5AB29DF80E3003F003
:103AA00055038A49CB5C1B015BB2134359B2049B9B
:103AB0005B00874A1344CAB21A709DF80F305B0846
:103AC000DBB203F05503814AD35C5AB29DF80E3045
:103AD0005B08DBB203F055037C49CB5C1B015BB296
:103AE000134359B2049B5B000133794A1344CAB2B1
:103AF0001A70049B5B00069A13441B788DF80F30F4
:103B0000049B5B000133069A13441B788DF80E303A
:103B10009DF80F3003F055036C4AD35C5AB29DF800
:103B20000E3003F055036949CB5C1B015BB21343B4
:103B300059B2049B5B00674A1344CAB21A709DF8DD
:103B40000F305B08DBB203F05503604AD35C5AB216
:103B50009DF80E305B08DBB203F055035B49CB5C8C
:103B60001B015BB2134359B2049B5B000133594AFA
:103B70001344CAB21A70049B01330493514B5B681F
:103B80005B00049A9A42FFF472AF0023049322E090
:103B9000049B4F4A9818049B5B004F4A9918049B5A
:103BA000342202FB03F34D4A13440422FCF760FC69
:103BB000049B484A9818049B5B00494A9918049B47
:103BC000342202FB03F3474A13440422FCF750FC5F
:103BD000049B01330493049B012BD9D90023049344
:103BE00047E0049B5B003C4A32F813003E4B1A68E6
:103BF0003E4B1B781901049B0B44DB00134402B2BB
:103C00001A80049B5B000133334A32F81300364BB1
:103C10001A68364B1B781901049B0B44DB000233F6
:103C2000134402B21A80049B5B0001332C4A32F821
:103C300013002D4B1A682D4B1B781901049B0B4464
:103C4000DB000433134402B21A80049B5B00244A55
:103C500032F81300244B1A68244B1B781901049B7B
:103C60000B44DB000633134402B21A80049B013379
:103C70000493049B0F2BB4D91C4B1B78092B3FD109
:103C80001A4B00221A701A4B1B68174A12684FF41D
:103C9000207110469847144B1B68164A1360124B4C
:103CA0001B68154A934203D10F4B144A1A602DE04A
:103CB0000D4B114A1A6029E0000B002070770108B3
:103CC000F0BD0020D4A50020E0A70020100B0020AC
:103CD000ECAB00202CAD0020ECAC002024BE00207A
:103CE0002CAE00208CBE0020900B00206CB8002071
:103CF00020BE0020940B00206CAE00206CB300208E
:103D00000D4B1B780133DAB20B4B1A70FFF790FDA5
:103D1000034683F00103DBB2002B7FF488AE00E0A2
:103D200000BF00BF054B079A1B689A4201D0FEF7FF
:103D300037FA09B05DF804FB6CB80020000B0020D6
:103D400000B587B00390029101920D4B1B6805935B
:103D5000FFF726FD0B4A029B13600A4A019B536042
:103D6000094803F0EDF9FFF733FD00BF044B059A56
:103D70001B689A4201D0FEF713FA07B05DF804FB06
:103D8000000B0020D4A50020F0BD002000000000A2
:103D900000B587B00390029101920D4B1B6805930B
:103DA000FFF7FEFC0B4A029B13600A4A019B53601B
:103DB000094803F0C5F9FFF70BFD00BF044B059A56
:103DC0001B689A4201D0FEF7EBF907B05DF804FBDF
:103DD000000B0020E0A70020F0BD00200000000044
:103DE00000B583B0064B1B68019300BF044B019ADA
:103DF0001B689A4201D0FEF7D3F903B05DF804FBCB
:103E0000000B002000000000000000000000000087
:103E100000B587B003903D4B1B6805933C4A039B5C
:103E20001B68136000213B4803F0E2F80023009375
:103E3000394B41224FF4AF61384802F059FC024639
:103E4000374B1A60FFF7CCFFFFF732FD40F20C4210
:103E50000021344810F084F9324B334AC3F8082467
:103E600010220021314810F07BF9304B304A1A60A3
:103E70002E4B00225A602D4B00221A812B4B8022A0
:103E8000DA602A4B4FF400625A81FFF779F927492B
:103E90002848FFF7B5F9284B284A4FF48071254888
:103EA000FFF7E6F94FF403720021254810F058F9A6
:103EB000234B1D4AC3F8082214220021214810F088
:103EC0004FF9204B00221A601E4B1F4A5A601D4BAF
:103ED00080229A601B4B1D4ADA601A4B4FF44B72DA
:103EE0001A82184B08225A821649194804F040FFDA
:103EF000174804F075FF00BF044B059A1B689A42EF
:103F000001D0FEF74DF907B05DF804FB000B00206F
:103F100020BE0020F0BD0020113A000878B8002033
:103F200070B80020E0A70020EFBEADDE10BE00207C
:103F3000913D00088CA50020E8A90020E8A70020FA
:103F4000D4A50020FCBD0020DCA50020413D0008D8
:103F500074CF0020000000000000000000000000FE
:103F600000B583B0094B1B68019320230093009B8D
:103F700083F3118800BF054B019A1B689A4201D058
:103F8000FEF70EF903B05DF804FB00BF000B002044
:103F900000B583B0094B1B68019300230093009B7D
:103FA00083F3118800BF054B019A1B689A4201D028
:103FB000FEF7F6F803B05DF804FB00BF000B00202D
:103FC00000B583B0094B1B680193FFF7C9FF02F0EE
:103FD0008FFE01F065FA00BF044B019A1B689A42FC
:103FE00001D0FEF7DDF803B05DF804FB000B002004
:103FF00000B583B0114B1B68019301F079FA02F010
:104000008FFE0F4B1B680E4A93420AD00C4B9B69E4
:104010009A680B4B1B689B689A4202D2094801F0D0
:104020000FF9FFF7B5FF00BF044B019A1B689A42D6
:1040300001D0FEF7B5F803B05DF804FB000B0020DB
:1040400038C20020A0770108000000000000000036
:1040500000B583B0094B1B680193094B5B68084AA4
:1040600043F00103536000BF044B019A1B689A425E
:1040700001D0FEF795F803B05DF804FB000B0020BB
:1040800090ED00E0000000000000000000000000D3
:1040900000B587B00390029101928DF803309DF82E
:1040A00020308DF80230244B1B68059300230493C5
:1040B000019B042B02D8214801F0C2F8039B03F0B6
:1040C0000F030393029B23F01F0302939DF802301A
:1040D00083F00103DBB2002B03D0049B03F1805378
:1040E00004939DF803301B06049A13440493019B28
:1040F000013B5A00049B13440493049B0133049333
:10410000FFF75EFF029A039B13440D4A1033D360FE
:104110000B4A049B1361FFF76BFFBFF36F8FBFF375
:104120004F8F00BF044B059A1B689A4201D0FEF7DF
:1041300037F807B05DF804FB000B0020807701081A
:1041400090ED00E000000000000000000000000012
:1041500000B587B0184B1B680593184B5B68174A6E
:1041600043F004035360164B5B6A154A43F48033F3
:104170005362002300930023052200210720FFF74C
:1041800087FF4FF0005303931D230493049A0023E9
:104190000093032303990020FFF77AFFFFF758FFEE
:1041A00000BF054B059A1B689A4201D0FDF7F8FF46
:1041B00007B05DF804FB00BF000B002090ED00E0AD
:1041C00000ED00E000000000000000000000000022
:1041D00010B59EB0204B1B681D932049204810F05D
:1041E00057F8EFF309831C462346194603AB6822B0
:1041F0001846FDF71DFE1B4B9B6ADBB20293029B28
:1042000003F00203002B0AD0164B5B6B1A46099B86
:1042100000931346144A802111480FF0F1FF029BCE
:1042200003F00103002B0AD00E4B5B6B1A46089B70
:10423000009313460D4A802109480FF0E1FF08481A
:1042400000F0FEFF00BF044B1D9A1B689A4201D08C
:10425000FDF7A6FF1EB010BD000B0020B0770108CF
:10426000F4BE002000ED00E0F075010810760108B2
:1042700000B585B00190224B1B680393019B1B780E
:10428000002B04D01F4B4FF400521A8303E01D4B48
:104290004FF400525A83019B01331B78002B04D04A
:1042A000184B4FF480521A8303E0164B4FF48052A0
:1042B0005A83019B02331B78002B04D0114B4FF41F
:1042C00080421A8303E00F4B4FF480425A83019BD4
:1042D00003331B78002B04D00A4B4FF400421A839F
:1042E00003E0084B4FF400425A8300BF044B039A8B
:1042F0001B689A4201D0FDF753FF05B05DF804FB3F
:10430000000B002000100240000000000000000030
:1043100000B585B00190224B1B680393019B1B786D
:10432000002B04D01F4B4FF400721A8303E01D4B87
:104330004FF400725A83019B01331B78002B04D089
:10434000184B4FF480721A8303E0164B4FF48072BF
:104350005A83019B02331B78002B04D0114B4FF47E
:1043600000621A8303E00F4B4FF400625A83019BF3
:1043700003331B78002B04D00A4B4FF480621A835E
:1043800003E0084B4FF480625A8300BF044B039A4A
:104390001B689A4201D0FDF703FF05B05DF804FBEE
:1043A000000B002000100240000000000000000090
:1043B00000B585B00190284B1B680393274B1B78F1
:1043C000022B1AD1254B5B780133DBB203F00703D4
:1043D0008DF80B30214B9B689DF80B2092002049F3
:1043E0000A44104698471D4B5B68013B1B4A5360CB
:1043F0001A4A9DF80B30537022E0184B1B78012BA2
:104400001AD1164B5B78013BDBB203F007038DF842
:104410000B30124B9B689DF80B20920010490A4408
:10442000104698470D4B5B6801330C4A53600B4AAA
:104430009DF80B30537003E0084B9B680948984780
:1044400000BF054B039A1B689A4201D0FDF7A8FEF6
:1044500005B05DF804FB00BF000B002074BF002016
:10446000E0770108D077010800000000000000009C
:1044700000B585B00190284B1B680393274B1B7830
:10448000012B1AD1254B5B780133DBB203F0070314
:104490008DF80B30214B9B689DF80B209200204932
:1044A0000A44104698471D4B5B6801331B4A536012
:1044B0001A4A9DF80B30537022E0184B1B78022BE0
:1044C0001AD1164B5B78013BDBB203F007038DF882
:1044D0000B30124B9B689DF80B20920010490A4448
:1044E000104698470D4B5B68013B0C4A53600B4AE2
:1044F0009DF80B30537003E0084B9B6809489847C0
:1045000000BF054B039A1B689A4201D0FDF748FE95
:1045100005B05DF804FB00BF000B00208CBF00203D
:10452000E0770108D07701080000000000000000DB
:1045300000B585B001900F4B1B6803930E4B4FF4F1
:1045400000525A830C4B4FF480525A830A4B4FF45B
:1045500080425A83084B4FF400425A8300BF054BF8
:10456000039A1B689A4201D0FDF71AFE05B05DF868
:1045700004FB00BF000B0020001002400000000000
:1045800000B585B001900F4B1B6803930E4B4FF4A1
:1045900000725A830C4B4FF480725A830A4B4FF4CB
:1045A00000625A83084B4FF480625A8300BF054B68
:1045B000039A1B689A4201D0FDF7F2FD05B05DF841
:1045C00004FB00BF000B00200010024000000000B0
:1045D00000B583B00B4B1B680193992200210A4858
:1045E00004F07EFD0021084804F03AFE00BF054BB0
:1045F000019A1B689A4201D0FDF7D2FD03B05DF825
:1046000004FB00BF000B002008D0002000000000C9
:1046100000B583B00B4B1B680193992200210A4817
:1046200004F05EFD0021084804F01AFE00BF054BAF
:10463000019A1B689A4201D0FDF7B2FD03B05DF804
:1046400004FB00BF000B002024D00020000000006D
:1046500000B583B0084B1B6801930021074804F0A4
:1046600087FD00BF044B019A1B689A4201D0FDF7F9
:1046700097FD03B05DF804FB000B002008D000207C
:1046800000B583B0084B1B6801930021074804F074
:104690006FFD00BF044B019A1B689A4201D0FDF7E1
:1046A0007FFD03B05DF804FB000B002024D0002048
:1046B00000B585B0019000912A4B1B680393009BC5
:1046C00040F24C42934203DD40F24C43009305E03C
:1046D000009B254A934201DA234B0093009B5B0029
:1046E0000093009B002B0AD1019B00221A704FF40B
:1046F0007A73ADF80A30019B1B6998471EE0009B56
:10470000002B03DD019B01221A7005E0019B0222B0
:104710001A70009B5B420093144A009B92FBF3F3D8
:10472000ADF80A30009B40F28922934203DC019BE2
:10473000DB68984702E0019B1B699847019B5B6916
:10474000BDF80A201146184604F09AFC00BF054B3C
:10475000039A1B689A4201D0FDF722FD05B05DF86F
:1047600004FB00BF000B0020B4FBFFFFA08601008C
:1047700000B585B00190094B1B6803930199084867
:10478000FFF796FF00BF054B039A1B689A4201D0C2
:10479000FDF706FD05B05DF804FB00BF000B00202F
:1047A0008CBF00200000000000000000000000009E
:1047B00000B585B00190094B1B6803930199084827
:1047C000FFF776FF00BF054B039A1B689A4201D0A2
:1047D000FDF7E6FC05B05DF804FB00BF000B002010
:1047E00074BF002000000000000000000000000076
:1047F00000B583B0254B1B680193254B00221A702E
:10480000234B00225A70224B00225A60204B214A2F
:104810009A601F4B204ADA601D4B204A1A611C4BDC
:104820001F4A5A611F4B00221A701E4B00225A70F9
:104830001C4B00225A601B4B1B4A9A60194B1B4AA7
:10484000DA60184B1A4A1A61164B1A4A5A611A480A
:10485000FFF70EFD1848FFF75BFD1849104804F0FC
:10486000CFFB0F4804F0C4FC1549124804F0C8FB04
:10487000104804F0BDFC00BF044B019A1B689A422B
:1048800001D0FDF78DFC03B05DF804FB000B0020A8
:1048900074BF002071420008D1450008514600084D
:1048A00008D000208CBF00201143000811460008EA
:1048B0008146000824D00020D07701080078010844
:1048C0004078010800000000000000000000000027
:1048D00084B001900C4B1B6803930C4B20225A832D
:1048E0000A4B40225A83094B4FF480625A83074B8C
:1048F0004FF400625A83054B4FF480425A83044BB5
:1049000004225A83FEE700BF000B0020000C024087
:104910000004024000000000000000000000000051
:1049200000B583B0094B1B68019320230093009BC3
:1049300083F3118800BF054B019A1B689A4201D08E
:10494000FDF72EFC03B05DF804FB00BF000B002058
:1049500000B583B0094B1B68019300230093009BB3
:1049600083F3118800BF054B019A1B689A4201D05E
:10497000FDF716FC03B05DF804FB00BF000B002040
:1049800000B583B0074B1B680193FFF7C9FF00BF59
:10499000044B019A1B689A4201D0FDF701FC03B059
:1049A0005DF804FB000B0020000000000000000088
:1049B00000B583B0074B1B680193FFF7C9FF00BF29
:1049C000044B019A1B689A4201D0FDF7E9FB03B042
:1049D0005DF804FB000B0020000000000000000058
:1049E00000B583B0094B1B680193FFF7C9FF02F0C4
:1049F000AFF900F0A5FD00BF044B019A1B689A4275
:104A000001D0FDF7CDFB03B05DF804FB000B0020E7
:104A100000B583B0094B1B68019300F0B9FD02F0AB
:104A2000AFF9FFF7C5FF00BF044B019A1B689A421C
:104A300001D0FDF7B5FB03B05DF804FB000B0020CF
:104A400000B585B00190084611461A4603468DF818
:104A500003300B468DF802301346ADF80030124B90
:104A60001B6803939DF80330022B05D0032B05D060
:104A7000012B0DD10D4B0CE00D4B0AE09DF80230DF
:104A8000032B05D89DF80230DB000A4A134400E0EE
:104A900000231846044B039A1B689A4201D0FDF785
:104AA0007FFB05B05DF804FB000B0020A078010837
:104AB0000079010890790108000000000000000062
:104AC00000B585B001900B468DF80330194B1B687B
:104AD00003939DF80330052B20D801A252F823F050
:104AE0001D4B00081D4B0008F94A00081D4B00082B
:104AF0001D4B00081D4B0008FFF772FF0E4A0121F5
:104B0000019807F045F80D4A0221019807F040F896
:104B10000B4806F035FAFFF77BFF00E000BF054BBE
:104B2000039A1B689A4201D0FDF73AFB05B05DF885
:104B300004FB00BF000B0020B0790108E0790108F8
:104B4000A4BF0020000000000000000000000000E2
:104B500000B583B0164B1B680193164806F078F930
:104B60001549144806F0B4F9144B1B6D9A6B134B9E
:104B70001B6D22F400229A634FF47A7001F0F8FD65
:104B80000E4B0F49184606F0BBFF0C4B1B6D9A6B82
:104B90000A4B1B6D42F400229A6300BF044B019A3A
:104BA0001B689A4201D0FDF7FBFA03B05DF804FBE5
:104BB000000B0020A4BF0020207A0108F8CC0020C0
:104BC000107A010800000000000000000000000052
:104BD00000B585B00190084B1B680393074802F0AD
:104BE00077FC00BF044B039A1B689A4201D0FDF783
:104BF000D7FA05B05DF804FB000B0020980B0020ED
:104C000000B585B00190084B1B680393074802F07C
:104C10002FFD00BF044B039A1B689A4201D0FDF799
:104C2000BFFA05B05DF804FB000B0020980B0020D4
:104C300000B585B001900091114B1B680393009B58
:104C4000002B02DC0F4800F0FBFA009B184603F033
:104C5000C7FA0290029B002B05D1019B0C221A601F
:104C60004FF0FF3300E0029B1846054B039A1B6888
:104C70009A4201D0FDF794FA05B05DF804FB00BF3D
:104C8000000B0020307A0108000000000000000046
:104C900000B583B0064B1B68019300BF044B019A1B
:104CA0001B689A4201D0FDF77BFA03B05DF804FB64
:104CB000000B0020000000000000000000000000C9
:104CC00000B583B0064B1B68019300BF044B019AEB
:104CD0001B689A4201D0FDF763FA03B05DF804FB4C
:104CE000000B002000000000000000000000000099
:104CF00082B0024B1B680193FEE700BF000B00204F
:104D000000B583B0034B1B680193034800F098FA89
:104D1000FEE700BF000B0020407601080000000005
:104D200000B587B00190134B1B680593019B03F0FE
:104D300007030393104BDB680493049A4FF6FF03B9
:104D400013400493039B1A02049B134343F0BF6375
:104D500043F400330493084A049BD36000BF054B1F
:104D6000059A1B689A4201D0FDF71AFA07B05DF860
:104D700004FB00BF000B002000ED00E0000000007D
:104D800000B585B0034600918DF80730144B1B68C1
:104D900003939DF90730002B0CDA009BDAB211491E
:104DA0009DF8073003F00F03043B1201D2B20B440D
:104DB0001A7609E0009BDAB20B499DF9073012011F
:104DC000D2B20B4483F8002300BF054B039A1B6843
:104DD0009A4201D0FDF7E4F905B05DF804FB00BF8D
:104DE000000B002000ED00E000E100E0000000000A
:104DF00000B583B0144B1B680193144B00229A60DA
:104E00000320FFF78DFF124BDB68114A43F08073DC
:104E1000D360104B1B680F4A43F00103136001215C
:104E20006FF00400FFF7ACFF02216FF00100FFF705
:104E3000A7FF00BF044B019A1B689A4201D0FDF7FF
:104E4000AFF903B05DF804FB000B002000ED00E0BB
:104E5000F0ED00E0001000E00000000000000000A5
:104E600000B583B0094B1B68019320230093009B7E
:104E700083F3118800BF054B019A1B689A4201D049
:104E8000FDF78EF903B05DF804FB00BF000B0020B6
:104E900000B583B0094B1B68019300230093009B6E
:104EA00083F3118800BF054B019A1B689A4201D019
:104EB000FDF776F903B05DF804FB00BF000B00209E
:104EC00000B583B0074B1B680193FFF7C9FF00BF14
:104ED000044B019A1B689A4201D0FDF761F903B0B7
:104EE0005DF804FB000B0020000000000000000043
:104EF00000B583B0074B1B680193FFF7C9FF00BFE4
:104F0000044B019A1B689A4201D0FDF749F903B09E
:104F10005DF804FB000B0020000000000000000012
:104F200000B583B0074B1B68019372B600BF054BF9
:104F3000019A1B689A4201D0FDF732F903B05DF87F
:104F400004FB00BF000B0020000000000000000078
:104F500000B583B0094B1B68019300230093009BAD
:104F600083F3118862B600BF044B019A1B689A4212
:104F700001D0FDF715F903B05DF804FB000B00202C
:104F800000B583B0064B1B68019300BF044B019A28
:104F90001B689A4201D0FDF703F903B05DF804FBEA
:104FA000000B0020000000000000000000000000D6
:104FB00000B583B0074B1B680193074B5B6818462D
:104FC000044B019A1B689A4201D0FDF7E9F803B03F
:104FD0005DF804FB000B0020001000E00000000062
:104FE00000B583B0084B1B68019300F031FAFFF75E
:104FF000AFFF00BF044B019A1B689A4201D0FDF736
:10500000CFF803B05DF804FB000B002000000000A7
:1050100000B583B0094B1B680193FFF751FF01F006
:1050200097FE00F08DFA00BF044B019A1B689A426C
:1050300001D0FDF7B5F803B05DF804FB000B0020CC
:1050400000B583B0094B1B68019300F0A1FA01F091
:1050500097FEFFF74DFF00BF044B019A1B689A4271
:1050600001D0FDF79DF803B05DF804FB000B0020B4
:1050700000B585B01F4B1B68039300F011FB1E4B5E
:105080009B6A01331C4A93621B4BDB691B4A9342A8
:1050900024D0194BDB699A68013A9A6019E0164BE3
:1050A000DB690193019BDB680293019B0022DA60BC
:1050B000019B1B68114A5A60019B1B680E4AD36111
:1050C000FFF7BEFF019B1A69029B10469847FFF746
:1050D0009FFF094BDB699B68002BE0D000BF054BAD
:1050E000039A1B689A4201D0FDF75AF805B05DF8A3
:1050F00004FB00BF000B002038C2002054C2002077
:1051000000B585B00190094B1B680393084B9B6960
:10511000019A9A6100BF054B039A1B689A4201D01D
:10512000FDF73EF805B05DF804FB00BF000B002062
:1051300038C2002000000000000000000000000055
:1051400000B585B001900091084B1B680393019B4B
:10515000009A9A6100BF054B039A1B689A4201D0DE
:10516000FDF71EF805B05DF804FB00BF000B002042
:1051700000B585B00190034B1B680393FFF700FF58
:10518000FCE700BF000B0020000000000000000052
:1051900000B585B0204B1B680393FFF729FE00F094
:1051A0004FFD00F02DFB01F08BFC02F0F1FF03F04E
:1051B0006FF801F02DFD00F0C3FA4021174801F00F
:1051C000C7F90246164B9A61154B9B69012283F879
:1051D0002020134B9B69134ADA61FFF701FF124845
:1051E000FFF78EFF00230093104B01224FF4C47190
:1051F0000F4801F07DFA02900E490298FFF7A0FFD8
:1052000000BF054B039A1B689A4201D0FCF7C8FF08
:1052100005B05DF804FB00BF000B002078C600203D
:1052200038C2002000040020F07A01087151000803
:1052300020C7002060760108000000000000000088
:1052400000B585B00190064B1B680393FFF768FE1D
:105250000198FFF73DFB034A019BD362FEE700BFC5
:10526000000B002038C200200000000000000000F9
:1052700000B583B0124B1B68019300F011FA114B7B
:105280009B6993F82330002B07D00E4B9B6993F852
:105290002320013AD2B283F823200A4B9B695A6A31
:1052A00001325A62FFF7E4FE00BF054B019A1B680A
:1052B0009A4201D0FCF774FF03B05DF804FB00BF15
:1052C000000B002038C20020000000000000000099
:1052D00000B587B00390029101920C4B1B680593B7
:1052E000039A029BD21A0199029BCB1A9A4234BFAD
:1052F00001230023DBB21846044B059A1B689A422F
:1053000001D0FCF74DFF07B05DF804FB000B002057
:1053100000B587B00190104B1B680593FFF748FE5E
:105320000390039A019B1344049300BFFFF740FED0
:105330000346049A03991846FFF7CAFF0346002B59
:10534000F4D100BF044B059A1B689A4201D0FCF7C8
:1053500027FF07B05DF804FB000B002000000000F1
:1053600000B583B0094B1B68019320230093009B79
:1053700083F3118800BF054B019A1B689A4201D044
:10538000FCF70EFF03B05DF804FB00BF000B00202C
:1053900000B583B0094B1B68019300230093009B69
:1053A00083F3118800BF054B019A1B689A4201D014
:1053B000FCF7F6FE03B05DF804FB00BF000B002015
:1053C00000B583B0074B1B680193FFF7C9FF00BF0F
:1053D000044B019A1B689A4201D0FCF7E1FE03B02E
:1053E0005DF804FB000B002000000000000000003E
:1053F00000B583B0074B1B680193FFF7C9FF00BFDF
:10540000044B019A1B689A4201D0FCF7C9FE03B015
:105410005DF804FB000B002000000000000000000D
:1054200000B583B0074B1B680193074B9B6A184676
:10543000044B019A1B689A4201D0FCF7B1FE03B0FD
:105440005DF804FB000B002038C2002000000000C3
:1054500000B583B00C4B1B6801930C4B1B6B002BEE
:1054600003D10A4B5B6B002B02D00948FFF7E8FE23
:1054700000BF054B019A1B689A4201D0FCF790FED1
:1054800003B05DF804FB00BF000B002038C2002011
:10549000807601080000000000000000000000000D
:1054A00000B583B00D4B1B6801930D4B1B6B002B9C
:1054B00003D10B4B5B6B002B02D00A48FFF7C0FEF9
:1054C000074B01225A6300BF044B019A1B689A42A2
:1054D00001D0FCF765FE03B05DF804FB000B002073
:1054E00038C200208876010800000000000000009B
:1054F00000B583B00D4B1B6801930D4B1B6B002B4C
:1055000003D10B4B5B6B002B02DC0A48FFF798FEC4
:10551000074B00225A6300BF044B019A1B689A4252
:1055200001D0FCF73DFE03B05DF804FB000B00204A
:1055300038C2002090760108000000000000000042
:1055400000B583B00D4B1B6801930D4B1B6B002BFB
:1055500003DD0B4B5B6B002B02D00A48FFF770FE9C
:10556000074B01225A6300BF044B019A1B689A4201
:1055700001D0FCF715FE03B05DF804FB000B002022
:1055800038C20020987601080000000000000000EA
:1055900000B583B00D4B1B6801930D4B1B6B002BAB
:1055A00003DD0B4B5B6B002B02DC0A48FFF748FE68
:1055B000074B00225A6300BF044B019A1B689A42B2
:1055C00001D0FCF7EDFD03B05DF804FB000B0020FB
:1055D00038C20020A0760108000000000000000092
:1055E00000B583B0104B1B680193FFF7E9FE0F4B2A
:1055F0001B6B002B03DB0D4B5B6B002B02D00C48AD
:10560000FFF71EFE094B1B6B0133084A1363FFF7BC
:10561000EFFE00BF044B019A1B689A4201D0FCF7D1
:10562000BFFD03B05DF804FB000B002038C2002072
:10563000A876010800000000000000000000000043
:1056400000B583B0104B1B680193FFF7B9FE0F4BF9
:105650001B6B002B03DD0D4B5B6B002B02D00C484A
:10566000FFF7EEFD094B1B6B013B084A1363FFF785
:10567000BFFE00BF044B019A1B689A4201D0FCF7A1
:105680008FFD03B05DF804FB000B002038C2002042
:10569000B0760108000000000000000000000000DB
:1056A00000B583B00C4B1B6801930C4B1B6B002B9C
:1056B00003DB0A4B5B6B002B02DC0948FFF7C0FDE4
:1056C00000BF054B019A1B689A4201D0FCF768FDA8
:1056D00003B05DF804FB00BF000B002038C20020BF
:1056E000B876010800000000000000000000000083
:1056F00000B583B00C4B1B6801930C4B1B6B002B4C
:1057000003D10A4B5B6B002B02DC0948FFF798FDC5
:1057100000BF054B019A1B689A4201D0FCF740FD7F
:1057200003B05DF804FB00BF000B002038C200206E
:10573000C07601080000000000000000000000002A
:1057400000B583B0094B1B680193094B40229A6353
:10575000074B084ADA6300BF044B019A1B689A4260
:1057600001D0FCF71DFD03B05DF804FB000B002029
:1057700038C2002078C200200000000000000000B5
:1057800010B584B00190184B1B680393174BDC6B6A
:10579000FFF746FE03462360144BDB6B134A926906
:1057A0005A60124BDB6B019A926A9A600F4BDB6B6B
:1057B000019A92F820201A730C4BDB6B10330B4AC2
:1057C000D3630A4BDB6B0A4A934202D3074B094A65
:1057D000DA6300BF044B039A1B689A4201D0FCF7BE
:1057E000DFFC04B010BD00BF000B002038C2002059
:1057F00078C6002078C200200000000000000000F1
:1058000000B583B00D4B1B6801930D4B0D4ADA6157
:105810000B4B0C4A1A620A4B4FF0FF325A62084B8C
:1058200000229A6200BF054B019A1B689A4201D080
:10583000FCF7B6FC03B05DF804FB00BF000B0020D2
:1058400038C2002054C20020000000000000000008
:1058500000B589B00390029101920093284B1B6818
:105860000793FFF71DFF039B002B05D0019B002B27
:1058700002D0029B002B02D12248FFF7E1FC039BE0
:10588000009A1A61039B019ADA60029B06931E4BF1
:10589000DB69059307E0059B9B68069AD31A06937C
:1058A000059B1B680593059B9B68069A9A42F2D854
:1058B000039B059A1A60039B1B685A68039B5A60F6
:1058C000039B5B68039A1A60059B039A5A60039BCB
:1058D000069A9A60059B9A68069BD21A059B9A6065
:1058E000094B4FF0FF325A6200BF054B079A1B6805
:1058F0009A4201D0FCF754FC09B05DF804FB00BFEC
:10590000000B0020407A010838C20020000000008F
:1059100000B585B001901B4B1B680393FFF7C0FED9
:10592000019B002B02D11848FFF78AFC019BDB6822
:10593000002B02D11448FFF783FC019B1B68996878
:10594000019B9A68019B1B680A449A60019B5B68F3
:10595000019A12681A60019B1B68019A52685A608A
:10596000019B0022DA60094B4FF0FF325A6200BF00
:10597000044B039A1B689A4201D0FCF711FC05B056
:105980005DF804FB000B0020507A010838C20020AB
:1059900000B583B0094B1B68019320230093009B43
:1059A00083F3118800BF054B019A1B689A4201D00E
:1059B000FCF7F6FB03B05DF804FB00BF000B002012
:1059C00000B583B0094B1B68019300230093009B33
:1059D00083F3118800BF054B019A1B689A4201D0DE
:1059E000FCF7DEFB03B05DF804FB00BF000B0020FA
:1059F00000B583B0074B1B680193FFF7C9FF00BFD9
:105A0000044B019A1B689A4201D0FCF7C9FB03B012
:105A10005DF804FB000B0020000000000000000007
:105A200000B583B0074B1B680193FFF7C9FF00BFA8
:105A3000044B019A1B689A4201D0FCF7B1FB03B0FA
:105A40005DF804FB000B00200000000000000000D7
:105A500000B585B001900A4B1B680393019B019A26
:105A60001A60019B019A5A6000BF054B039A1B689C
:105A70009A4201D0FCF794FB05B05DF804FB00BF2F
:105A8000000B0020000000000000000000000000EB
:105A900000B585B001900D4B1B680393019B1B68FB
:105AA0000293029B1A68019B1A60019B1B68019A72
:105AB0005A60029B1846054B039A1B689A4201D014
:105AC000FCF76EFB05B05DF804FB00BF000B002087
:105AD00000B585B001900C4B1B680393019B5B687C
